:020000040800F2
:10000000280B002029020008DF290008D924000855
:10001000DD2900081F040008812F000800000000EF
:10002000000000000000000000000000E3290008BC
:10003000F104000800000000E1290008E52900089B
:10004000430200084302000843020008430200087C
:10005000430200084302000843020008430200086C
:10006000430200084302000843020008430200085C
:100070003904000843020008430200084302000854
:10008000430200084302000843020008430200083C
:10009000210400084302000843020008430200084C
:1000A000430200084302000843020008430200081C
:1000B000430200084302000843020008430200080C
:1000C00043020008430200084302000843020008FC
:1000D00043020008752F000843020008430200088D
:1000E00043020008430200084302000843020008DC
:1000F00043020008430200084302000843020008CC
:1001000043020008430200084302000843020008BB
:1001100043020008430200084302000843020008AB
:100120004302000843020008450400085104000887
:10013000430200084302000843020008430200088B
:100140002D0400084302000843020008430200088F
:100150005D04000843020008690400084302000827
:10016000430200084302000843020008430200085B
:100170004302000843020008430200080000000098
:10018000430200084302000800F002F800F03CF8C7
:100190000AA090E8000C82448344AAF10107DA45E2
:1001A00001D100F031F8AFF2090EBAE80F0013F0F8
:1001B000010F18BFFB1A43F0010318470036000077
:1001C00020360000103A24BF78C878C1FAD8520708
:1001D00024BF30C830C144BF04680C6070470000C1
:1001E0000023002400250026103A28BF78C1FBD840
:1001F000520728BF30C148BF0B6070471FB503F0DE
:10020000C7FA1FBD10B510BD00F0CFF81146FFF7BB
:10021000F5FF02F0F3FE00F0EDF803B4FFF7F2FF94
:1002200003BC00F0F5F80000094880470948004782
:10023000FEE7FEE7FEE7FEE7FEE7FEE7FEE7FEE796
:10024000FEE7FEE704480549054A064B70470000F3
:100250007D2A00088901000828050020280B0020BD
:10026000280700202807002053EA020C00F06980CC
:100270002DE9F04B4FF00006002B1FBFB3FA83F5BA
:1002800003FA05F424FA05F65E4012BF1643B2FAEB
:1002900082F502FA05F4C5F120051EBF22FA05FC1D
:1002A00044EA0C04203556EA044C4FEA144418BFC3
:1002B000641C4FF000084FF00009904271EB030CF2
:1002C00039D3002919BFB1FA81F701FA07F6B0FA5C
:1002D00080F700FA07F6C7F120071EBF20FA07FCD7
:1002E00046EA0C062037B6FBF4FCA7EB0507103FE7
:1002F00007F01F0BCBF120060CFA0BFB2CFA06F6CD
:1003000044BFB3460026202FA4BF5E464FF0000B2B
:100310005BEA060C08BF4FF0010B19EB0B09ABFBB6
:10032000027C48EB0608C01B06FB02CC0BFB03CC8F
:1003300071EB0C01C1E70B46024641464846BDE859
:10034000F08B13B54FF000004FF00001AFF30080C9
:10035000BDE81C4070474FF0000200B513469446BC
:100360009646203922BFA0E80C50A0E80C50B1F10D
:100370002001BFF4F7AF090728BFA0E80C5048BF21
:100380000CC05DF804EB890028BF40F8042B08BFBF
:10039000704748BF20F8022B11F0804F18BF00F8BB
:1003A000012B7047704770477047754600F02CF876
:1003B000AE4605006946534620F00700854618B052
:1003C00020B5FFF73FFFBDE820404FF000064FF09B
:1003D00000074FF000084FF0000B21F00701AC467A
:1003E000ACE8C009ACE8C009ACE8C009ACE8C00999
:1003F0008D46704710B50446AFF300802046BDE837
:100400001040FFF70ABF000000487047C8040020F2
:1004100001491820ABBEFEE7260002007047FEE748
:10042000014800F0DAB9000040000020014800F067
:10043000D4B9000068000020014800F091BC000021
:1004400024040020014800F08BBC00003C01002087
:10045000014800F085BC00009C010020014800F02C
:100460007FBC000064030020014800F079BC00005C
:10047000C403002001681823CAB2103AB2FBF3F299
:10048000054B6FF30901032A9B5CC36500D9091D65
:1004900081650846704700009A37000810B501468C
:1004A00000208B698A6A4FF0C07453B1B3F5005FC6
:1004B00015D072B1012A0CD0022A0AD0032A09D120
:1004C00004E01AB1012A06D0022A03D1C96AC9017F
:1004D00000D5012010BDC96AA142FAD010BD002A82
:1004E000F7D0012AF2D0022AF3D0032AF3D010BDAC
:1004F000704772B6FEE790F82020012A07D0022A42
:1005000005D0416A41F480214162012070470068B2
:1005100042690A43426100207047F0B590F82050CC
:100520000468A468012D05D0022D03D0416A41F46E
:1005300080214DE014F0406F01D1E50045D5C4F3B2
:1005400001640125A5401D608B684FF4C0759BB107
:10055000CE6833434E6843EAC603066805EB0417CA
:10056000F3514FF4C273076803EB04130E69FE5096
:10057000097D012905D009E00E88CB6843EA46537E
:10058000EBE70168CE5846F48076CE501179D2F868
:1005900005304FF4C67641EA0321036806EB0416E2
:1005A00099511178D2F801204FF4C47341EA022125
:1005B000026803EB0413D150006805EB04114258A4
:1005C00042F0010242500020F0BD416A41F40011A6
:1005D00041620120F0BD000010B590F82020012AF2
:1005E00007D0022A05D0416A41F4802141620120EE
:1005F00010BD3B48D0F8002242F00102C0F80022B2
:10060000D0F8002222F47C52C0F80022D0F8002258
:100610004B6A42EA0322C0F800220A7D02F01F035F
:1006200001229A40D0F81C329343C0F81C32CB69A7
:10063000B3B9D0F80C329343C0F80C328C894B68B4
:1006400064F31F434C6900EBC404C4F840320C89C6
:100650000B6864F31F434C6900EBC404C4F84432D4
:10066000CB69012B16D1D0F80C321343C0F80C32F1
:100670000C884B6864F31F434C6900EBC404C4F856
:1006800040320C89CB6864F31F434C6900EBC4040F
:10069000C4F844328B69002BD0F804320ED01343D7
:1006A000C0F804320B69002BD0F8143208D0134381
:1006B000C0F81432096A012904D008E09343EFE737
:1006C0009343F5E7D0F81C121143C0F81C12D0F880
:1006D000001221F00101C0F80012002010BD00003E
:1006E00000640040704770B590F82040012C05D0A0
:1006F000022C03D0416A41F4802128E0046809B348
:100700002469A40720D04FF4D874056804EB0114C1
:100710002D5915F00405956005682D591AD0ED087E
:10072000556005682C5904F00204D4604FF4DA7463
:10073000056804EB01142E5906F00F06082E0CD3A1
:1007400008250DE0E468DCE7416A41F400114162EC
:10075000012070BD6D0D1560E3E72D5905F00F0503
:10076000156105682D59C5F30725956105682C5954
:10077000240C54614FF4DC72046802EB0112A4589B
:100780001C700468A458240A5C700468A458240CE3
:100790009C700468A258120EDA704FF4DE7204687E
:1007A00002EB0112A4581C710468A458240A5C715D
:1007B0000468A458240C9C710468A258120EDA71C3
:1007C000006829B1016941F020010161002070BD7C
:1007D000C16841F02001C160F8E72DE9F05F0546EE
:1007E000006800244669D0F804908768D0F80CB0FF
:1007F000D0F810A0D0F81880F10748D0F90714D02D
:1008000001218160B80703D5284600F048FA0CE0C2
:10081000780702D54FF4006407E0380702D54FF49B
:10082000805402E0284600F039FAF80516D5296808
:100830004FF480708860B80503D5284600F031FA7F
:100840000CE0780502D544F4005407E0380502D5E1
:1008500044F4804402E0284600F022FAF80316D55A
:1008600029684FF480308860B80303D5284600F02B
:100870001AFA0CE0780302D544F4004407E0380388
:1008800002D544F4803402E0284600F00BFA300729
:1008900007D55FEACB6004D52968102044F40074C2
:1008A000C86070074FF0080707D55FEA0B7004D5E2
:1008B0002868C760284600F097F9B00706D5286871
:1008C000C068800702D0284600F090F9700607D56E
:1008D0005FEACA6004D52968102044F48064086186
:1008E000B00607D55FEA0A7004D528680761284674
:1008F00000F0A6F9F00606D528680069800702D046
:10090000284600F09EF9B00308D55FEAC96005D516
:10091000296810204860284600F094F9F00307D5B4
:100920005FEA097004D528684760284600F0BCF9E2
:10093000300446D55FEA497040D5F00504D55FEA3A
:10094000C87001D044F00104B00504D55FEA887096
:1009500001D544F00204700504D55FEA487001D562
:1009600044F00404300529D518F0700F26D008F0A3
:100970007000402815D006DC102809D020280AD0A5
:10098000302816D10AE050280ED0602811D10EE090
:1009900044F008040DE044F010040AE044F02004A0
:1009A00007E044F0400404E044F0800401E044F433
:1009B00080742868816921F07001816129680420B0
:1009C0004860002C05D0686A204368622846FFF71B
:1009D00089FEBDE8F09F70B5040003D094F82000B4
:1009E00010B104E0012070BD204600F081F82068BD
:1009F000016841F00101016000F0ECFB05460526AD
:100A000004E000F0E7FB401B0A2811D8206840688A
:100A1000C007F6D02068016821F00201016000F0F3
:100A2000D9FB05460BE000F0D5FB401B0A2806D990
:100A3000606A40F40030606284F82060D2E7206889
:100A400040688007EFD4207E0128206801683DD0EF
:100A500021F080010160607E01282068016838D0A3
:100A600021F040010160A07E01282068016833D098
:100A700021F020010160E07E0128206801682ED06D
:100A800041F010010160207F01282068016829D011
:100A900021F008010160607F01282068016824D0EE
:100AA00021F004010160D4E902010843D4E90412F1
:100AB000114308436168491E08432168C86100204A
:100AC0006062012084F82000002070BD41F08001A8
:100AD000C0E741F04001C5E741F02001CAE721F03D
:100AE0001001CFE741F00801D4E741F00401D9E754
:100AF000F0B587B0044614216846FFF72CFC354951
:100B0000354ADFF8CCE00868D4F800C0324B032443
:100B10000225092610320027401CF44521D1086027
:100B2000012807D1106840F000701060106800F0D4
:100B300000700590186840F00800186018688DE88B
:100B4000B00000F00800CDE9046069460394234832
:100B500000F052FA00221146142000F0B7FC1420D5
:100B600031E0DFF87CE0F4452FD1D2F800C04CF042
:100B7000806CC2F800C0D2F800C001280CF0806C74
:100B8000CDF814C0086007D1106840F00070106004
:100B9000106800F000700590186840F002001860BE
:100BA0001868694600F00200059060208DE8A100F9
:100BB000CDE903460B4800F01FFA00221146402001
:100BC00000F084FC402000F073FC07B0F0BD000092
:100BD000006400400800002030380240000C024051
:100BE00000680040000402407047000000B5114951
:100BF00089B088421CD107AB6A460021FFF773FD1C
:100C00000198C0F30721C0F30460022801D018281E
:100C10000ED10948094A405C00EB400101EBC001DC
:100C200002EB810107AA91F82A30019902F016FA25
:100C300009B000BD400000201D00002084040020F9
:100C400070477047704770B5044690F8200001283F
:100C500004D0606A40F40020606217E0022084F84B
:100C600020002068016821F00101016000F0B2FA63
:100C700005460DE000F0AEFA401B0A2808D9606A6C
:100C800040F400306062052084F82000012070BD2F
:100C900020684068C007EDD1606270BD7047704742
:100CA000704770477047704770472DE9F041044620
:100CB000876D00F08FFA054694F83500002602286B
:100CC00006D08020606584F834600120BDE8F081A2
:100CD0002068016821F0160101602068416921F057
:100CE00080014161206C08B9A06C20B120680168C6
:100CF00021F0080101602068016821F00101016014
:100D00000CE000F067FA401B052807D92020606539
:100D1000032084F8350084F83460D7E72068006841
:100D2000C007EED194F85C103F208840B8600120E5
:100D300084F8350084F834600020C7E790F8351057
:100D4000022903D08021416501207047052180F8E8
:100D500035100068016821F0010101600020704732
:100D60002DE9F84304464FF00009CDF800906348A0
:100D70004FF41651A56D0068B0FBF1F72E6894F89A
:100D80005C20082101FA02F030420FD0206802688E
:100D900052070BD5026822F00402026094F85C004E
:100DA0008140A960606D40F00100606594F85C10BE
:100DB0004FF0010808FA01F0304208D02168496973
:100DC000090604D5A860606D40F00200606594F8E3
:100DD0005C1004208840304208D0216809688907E7
:100DE00004D5A860606D40F00400606594F85C1064
:100DF00010208840304218D021680968090714D5AE
:100E0000A86020680168490304D50068000308D57C
:100E1000A16C07E00168C90503D4016821F008014D
:100E20000160216C09B12046884794F85C102020AD
:100E30008840304231D021680968C9062DD5A860A4
:100E400094F8350005282068016806D0490347D585
:100E5000006800031DD4616C1CE021F016010160E4
:100E60002068416921F080014161206C08B9A06CC3
:100E700020B12068016821F00801016094F85C103D
:100E80003F208840A86084F8358084F83490216D34
:100E90001FE0E16B09B120468847606D00282BD028
:100EA000606DC00714D0052084F835002068016803
:100EB00021F0010101600098401C0090B84203D865
:100EC00020680068C007F6D184F8358084F8349033
:100ED000E16C002910D001B02046BDE8F04308477E
:100EE0000168C905D5D4016821F01001016084F8BA
:100EF000358084F83490CCE7BDE8F88318000020F2
:100F00002DE9F041044600F065F905465CB1022088
:100F100084F83500002684F834602068016821F0E8
:100F2000010101600DE00120BDE8F08100F052F9FF
:100F3000401B052805D920206065032084F8350072
:100F4000F2E720680068C007F0D121680A682048ED
:100F50000240D4E901031843D4E903352B43184375
:100F600063691843A3691843E3691843236A184364
:100F70001043626A042A03D1D4E90B231A431043B5
:100F8000086020684069656A20F0070128460D4323
:100F9000012704280CD1A06A0543E06A40B120462D
:100FA000FFF77CFA20B14020606584F83570BAE71D
:100FB000206845612046FFF75DFA94F85C203F21E8
:100FC00091408160666584F835700020ACE70000D0
:100FD0003F8010F070B5044600F0FCF80546601C38
:100FE00002D004480078044400F0F4F8401BA0420A
:100FF000FAD370BD0C0000202DE9F84FDFF89C916A
:101000000022A9F1040B03274FF00F0C09F1040A89
:10101000ABF1040E01250B6895402B40AB426ED11D
:101020000C7904F00304012C01D0022C15D1866840
:10103000540007FA04F826EA0806D1F80C8008FAEA
:1010400004F848EA0608C0F808804468AC430D7903
:10105000C5F300159540254345600C79E443A4078A
:1010600008D0C568540007FA04F6B5438E68A64058
:101070002E43C6600C7904F00304022C11D1D4086D
:1010800000EB8406356A5407E40E0CFA04F825EAEE
:101090000805D1F8108008FA04F848EA0508C6F8EF
:1010A00020800568540007FA04F6B5430E7906F06F
:1010B0000306A6402E4306604C6814F4403F66D0F9
:1010C000374C256845F480452560246822F00305E7
:1010D00004F480440094334C05EB0408D8F8085815
:1010E0009407260F0CFA06F4A5432F4CA04201D119
:1010F000002424E02D4CA04202D101241FE046E050
:101100002B4CA04201D1022419E02A4CA04201D16B
:10111000032414E0284CA04201D104240FE0274C02
:10112000A04201D105240AE0254CA04201D10624A9
:1011300005E0244CA04201D1072400E00824B4407B
:101140002C43C8F80848D9F800404D464E689C43E7
:10115000F60200D51C432C60DAF8004055464E6874
:101160009C43B60200D51C432C60DBF800405D4672
:101170004E689C43B60300D51C432C60DEF800404B
:1011800075464E689C43F60300D51C432C60521CE8
:10119000102AFFF43FAFBDE8F88F0000083C014083
:1011A0004438024000300140000002400004024088
:1011B00000080240000C02400010024000140240EF
:1011C00000180240001C02400AB181617047090406
:1011D000FBE7000001488068704700000C00002019
:1011E00070B5040025D094F83D00002520B984F89E
:1011F0003C50204600F0B8F8242084F83D002068D8
:10120000016821F0010101602068016841F400419A
:1012100001602068016821F40041016000F022FAB9
:101220004D4B6168994201D84C4900E04C498842D5
:1012300001D2012070BD4B492268B0FBF1F1566824
:1012400026F03F060E43566062689A4206D94FF474
:10125000967251434FF47A72B1FBF2F12268491C45
:10126000166A26F03F06314311626168994210D830
:101270004900401EB0FBF1F2521CC2F30B02042ADB
:1012800001D2042022E0B0FBF1F0401CC0F30B00BF
:101290001CE0A268F2B301EBC10303EB0116431E8D
:1012A000B3FBF6F35B1C43F480431B0549D092B3B8
:1012B00001EBC10202EB0111401EB0FBF1F0401C3A
:1012C000C0F30B0040F4804040F400402168CA693C
:1012D0004CF6FF739A431043C861D4E907100143E9
:1012E0002068026822F0C00211430160D4E90301C2
:1012F00001432068826848F2FF339A4311438160BA
:10130000D4E9051001432068C26822F0FF021143AE
:10131000C16001E00EE016E02068016841F00101C3
:1013200001602564202084F83D00256384F83E5048
:10133000002070BD01EB4106431EB3FBF6F35B1CBE
:10134000B3E70120C2E701EB4101401EB0FBF1F021
:10135000401CC0F30B00B7E7A086010080841E008C
:1013600000093D0040420F00F0B587B0044614214B
:101370006846FEF7F0FF1D492068884233D11C48BB
:101380000025016841F004010160016801F00401D9
:101390000591016841F0010101600068122600F02A
:1013A000010005904FF40070CDE9000603270424E6
:1013B0000295CDE9037469460E48FFF71DFEA001B2
:1013C000CDE900060295CDE9037469460A48FFF7A6
:1013D00013FE07481030016841F400010160006805
:1013E00000F40000059007B0F0BD0000005C004074
:1013F0003038024000080240000002400248816884
:1014000002781144816070470C0000200B4810B531
:10141000016841F400710160016841F4806101607C
:10142000016841F480710160032000F06FF80F2023
:1014300000F006F800F024F8002010BD003C024047
:1014400070B50D4D04464FF47A712878B1FBF0F079
:101450000A490968B1FBF0F000F0E0FB48B9102C34
:1014600007D200222146501E00F030F800206C60A8
:1014700070BD012070BD00000C000020180000208D
:101480000A4808B5016841F480410160006800F431
:10149000804000900548001F016841F080510160C4
:1014A000006800F08050009008BD00004438024001
:1014B000002809DB00F01F02012191404009800053
:1014C00000F1E020C0F8001170470000F0B40E4BAE
:1014D0001B68C3F30223C3F10704042C00D90424BE
:1014E0001D1D072D01D2002300E0DB1E012606FA98
:1014F00004F56D1E0D409D409E40761E164045EA47
:101500000601F0BC01F03DBD0CED00E0064A00F024
:10151000070110684FF6FF03184040EA0120034915
:1015200008431060704700000CED00E00000FA0571
:101530002DE9F0470D46040065D0DFF81491D9F885
:101540000000EFB200F00700A84207D289F800704F
:10155000D9F8000000F00700A84254D120683D4EA1
:10156000810712D5400703D5306840F4E050306061
:101570002078000703D5306840F460403060306860
:10158000A16820F0F000084330602078C0072DD01B
:10159000304960680839012812D0022813D0032886
:1015A00011D00968890700292DDA316821F003017B
:1015B00001433160FFF70EFE804641F2883A0EE0AB
:1015C00009688903EFE709688901ECE7FFF702FE84
:1015D000A0EB0801514502D90320BDE8F08730682F
:1015E000616800F00C00B0EB810FEFD1D9F800106A
:1015F000484601F00701A94207D90770006800F0CA
:101600000700A84201D00120E7E72078400705D570
:101610003068E16820F4E05008433060207800072B
:1016200006D53068216920F4604040EAC10030608E
:1016300000F038F83168084AC1F30311515CC84022
:101640000649086006480068FFF7FAFE0020C4E774
:10165000003C024008380240A23700081800002071
:10166000100000200448054900680968044AC1F3D5
:101670008221515CC84070471800002008380240A1
:10168000B23700080448054900680968044AC1F3F4
:101690004231515CC84070471800002008380240B1
:1016A000B2370008154810B5006810F00C01144856
:1016B00013D0144B04290FD008290ED10F4C241F2E
:1016C000216801F03F022168490207D52068C0F374
:1016D0008810A0FB030106E0184610BD2168C1F385
:1016E0008811A1FB00010023FEF7BEFD2168C1F3B4
:1016F0000141491C4900B0FBF1F010BD083802401F
:101700000024F400001BB7002DE9F84F040075D049
:101710002078DFF838A3C007AAF1040548D00AF101
:1017200004000168C1F38101012908D00068C0F3F9
:10173000810002280AD1DAF80000400206D52868A4
:10174000800335D560680028E1D031E06068B0F5ED
:10175000803F10D0B0F5A02F286810D020F4803042
:101760002860286820F4802028606068A0B1FFF716
:1017700031FD06460CE0286840F48030F4E740F480
:1017800080202860F7E7FFF725FD801B642871D8CB
:1017900028688003F7D50BE0FFF71CFD064604E040
:1017A000FFF718FD801B6428F1D828688003F7D460
:1017B0002078DFF89C9280074FF0000B3DD5A348BE
:1017C000001D016811F00C0F08D00068C0F3810003
:1017D00002280AD1DAF80000400206D428688007FF
:1017E00015D5E068012809D111E0E068B8B1012001
:1017F000C9F80000FFF7EEFC064605E022E1FFF71E
:10180000E9FC801B0228C2D828688007F7D5286821
:10181000216920F0F80040EAC10028600DE0C9F815
:1018200000B0FFF7D7FC064604E0FFF7D3FC801BAF
:1018300002281FD828688007F7D42078000722D50F
:10184000824F84486169703771B101210160FFF7EF
:10185000C1FC064604E0FFF7BDFC801B022809D846
:1018600038688007F7D50EE0C0F800B0FFF7B2FC8B
:10187000064605E082E0FFF7ADFC801B02287DD81C
:1018800038688007F7D42078400765D56F484FF057
:1018900000083C300068C0000BD46C483C30016844
:1018A00041F08051016000684FF0010800F0805065
:1018B0000090694F3868C0050FD4386840F48070D4
:1018C0003860FFF787FC064604E0FFF783FC801BC7
:1018D000022853D83868C005F7D55C4FA0686C372C
:1018E00001280FD00528386810D020F0010038609A
:1018F000386820F004003860A068B0B1FFF76AFCD7
:1019000006460EE0386840F00100F4E740F00400BD
:101910003860F7E7FFF75EFC811B41F288308142B7
:1019200063D838688007F5D50DE0FFF753FC06460D
:1019300006E0FFF74FFC811B41F28830814254D80A
:1019400038688007F5D4B8F1000F05D03F483C3027
:10195000016821F080510160A069B8B33B49091DBD
:101960000968C1F38101022946D00228584606D0F1
:10197000C9F86000FFF72EFC044639E035E04F4619
:10198000C9F86000FFF726FC064604E0FFF722FCDA
:10199000801B022829D828688001F7D4D4E90701E0
:1019A0000843A16A2D4A490802EB0141626A41EAF3
:1019B0008211084394F82C1040EA0161CAF8001023
:1019C00001203866FFF706FC044605E03CE0FFF71F
:1019D00001FC001B022808D828688001F7D533E0F5
:1019E000FFF7F8FB001B022802D90320BDE8F88F9F
:1019F00028688001F4D427E00128F7D0DAF8000045
:101A0000E26900F4800191421CD1226A00F03F019A
:101A1000914217D147F6C071626A0140B1EB821F53
:101A200010D1A26A4FF0FF3300F4403103EB5202B1
:101A3000B1EB024F06D194F82C1000F07060B0EBBF
:101A4000016F01D00120D1E70020CFE70438024028
:101A500000004742800E4742007000400000FFFF38
:101A600070B5040009D0606A002540B12561656148
:101A7000A56294F8510040B10CE0012070BD60688F
:101A8000B0F5827FF4D0E561F2E784F8505020464B
:101A900000F044F8022084F851002068016821F029
:101AA00040010160A088218900F4827001F40441A2
:101AB0000843A18901F400610843217C01F002017F
:101AC0000843217D01F001010843218B01F40071DD
:101AD0000843217F01F03801084394F8201001F0F9
:101AE00080010843218D01F40051084321680860FA
:101AF000A069042101EA104094F8241001F01001BB
:101B00000843216848602068C16921F40061C1610F
:101B10006565012084F85100002070BD2DE9F04377
:101B200087B0044614216846FEF715FC3549206845
:101B3000884264D134480025016841F48051016035
:101B4000006800F4805005902F481438016841F077
:101B500002010160016801F002010591016841F094
:101B6000010101600068022600F0010005901820C4
:101B7000CDE9000602AA03274FF0050882E8A0017C
:101B800069462248FFF738FA8020CDE9000602AA0C
:101B9000694682E8A0011E48FFF72EFA1E4E1D4836
:101BA0007F063060C6E901754FF48068C6E90358C6
:101BB00075614FF40039B561C6E907593046756261
:101BC000FFF79EF908B1FEF794FCE664B463124E89
:101BD000104860361830E6E802074020A6E82101E8
:101BE0000D4846F814596030B561C6E90759756269
:101BF000FFF786F908B1FEF77CFCA664B46307B072
:101C0000BDE8F08300300140443802400004024047
:101C100000000240406402403C01002010B5401E1C
:101C2000B0F1807F01D3012010BD4FF0E02460614E
:101C30000F21601701F0A5F90020A06107202061A5
:101C4000002010BD70B590F83C20012A32D001254B
:101C500080F83C50022280F83D2002685368946866
:101C600023F070060B6833435360134B02689A42AB
:101C700014D0B2F1804F11D0104B9A420ED0104BBD
:101C80009A420BD00F4B9A4208D00F4B9A4205D084
:101C90000E4B9A4202D00E4B9A4204D1496824F06E
:101CA00080031943916080F83D50002180F83C107A
:101CB000084670BD022070BD0000014000040040D5
:101CC00000080040000C00400004014000400140BA
:101CD0000018004010B5040003D094F83D0010B186
:101CE00007E0012010BD002084F83C00204600F0F1
:101CF0001FF8022084F83D00211D206800F0C6FE78
:101D0000012084F8460084F83E0084F83F0084F8FF
:101D1000400084F8410084F8420084F8430084F8CD
:101D2000440084F8450084F83D00002010BD000008
:101D300008B50068124A1349904207D1086840F07C
:101D400004000860086800F0040009E00E4A9042B0
:101D500008D1086840F008000860086800F0080032
:101D6000009008BD09498842FBD10648001D016862
:101D700041F400310160006800F40030F0E7000039
:101D80000008004040380240000C00400044014080
:101D900070B5044690F83C000025012817D00126B4
:101DA00084F83C60022084F83D002068826822F0BC
:101DB000770222F47F4282600868502838D00DDC18
:101DC00020284FD005DC90B3102811D14AE0022022
:101DD00070BD302846D040280AD13BE060282FD083
:101DE00070280DD0B0F5805F03D0B0F5005F12D041
:101DF000012584F83D60002084F83C00284670BD31
:101E0000CB68D1E90121206800F0A8FE2068816834
:101E100041F0770109E0CB68D1E90121206800F0A9
:101E20009DFE2068816841F480418160E1E719E00E
:101E3000CA684968206800F065FF5021206806E004
:101E4000CA684968206800F06EFF6021206800F0D1
:101E50008FFECEE7CA684968206800F053FF402132
:101E60002068F4E7226801461046F0E710B586B016
:101E7000044614216846FEF76EFA2068214C0023C0
:101E8000214A0221A0420FD1106840F002001060E8
:101E9000106800F002000590C8018DE80B00CDE944
:101EA00003316946194812E0194CA04213D1106859
:101EB00040F080001060106800F0800005904FF442
:101EC000E0508DE80B00CDE9033169461148FFF77A
:101ED00093F806B010BD104B9842FAD1106840F04C
:101EE00020001060106800F0200005904020CDE92F
:101EF00000010120CDE90201032004906946074852
:101F0000E5E70000000800403038024000040240CD
:101F1000000C0040001C024000440140001402403C
:101F200070B5044690F83C0000260D4601280FD0FD
:101F3000012084F83C006AB1042A1DD0082A2FD061
:101F40000C2A3FD00126002084F83C00304670BDAA
:101F5000022070BD206800F013FE2068816941F006
:101F6000080181612068816921F004018161206894
:101F700081692A69114311E0206800F031FE206870
:101F8000816941F4006181612068816921F4806187
:101F90008161206881692A6941EA02218161D2E771
:101FA000206800F053FE2068C16941F00801C1615A
:101FB0002068C16921F00401C1612068C1692A69F2
:101FC000114311E0206800F075FE2068C16941F4FA
:101FD0000061C1612068C16921F48061C16120682C
:101FE000C1692A6941EA0221C161ACE710B5040068
:101FF00003D094F83D0010B107E0012010BD00208F
:1020000084F83C00204600F01EF8022084F83D00D1
:10201000211D206800F03AFD012084F8460084F874
:102020003E0084F83F0084F8400084F8410084F8C2
:10203000420084F8430084F8440084F8450084F8A2
:102040003D00002010BD704770477047F8B501682B
:1020500004460868CA684B6910F00F0F4FF000057E
:1020600059D003F0010602F49077374365D0C107D9
:1020700005D0D10503D5616C41F0010161644107D0
:1020800005D5D90703D0616C41F002016164810775
:1020900005D5D90703D0616C41F0040161640107E3
:1020A00007D502F02001314303D0616C41F00801F3
:1020B0006164616C00293AD0800604D5900602D58F
:1020C000204600F070FE20684069616CC0F380100B
:1020D000090700D460B3204600F03EFE2068406946
:1020E000400621D52068143050E8001F21F040013F
:1020F00040E80012002AF5D1E06BA8B172490165F1
:10210000E06BFEF71BFE002811D0E06B016D01B003
:10211000BDE8F040084783060FD593060DD520464D
:10212000BDE8F84000F03FBE2046FFF78EFFF8BD47
:102130002046FFF78AFF6564F8BD266B2023012E39
:102140007ED1C6067CD5D6067AD508684868009048
:1021500048694FF0020640064DD5E26B10684068B2
:102160004FF480770004000C3AD0A18D814237D91A
:10217000E085D069B8422DD020680C3050E8001FAF
:1021800021F4807140E80012002AF5D12068143053
:1021900050E8001F21F0010140E80012002AF5D1AB
:1021A0002068143050E8001F21F0400140E8001280
:1021B000002AF5D184F84230256320680C3050E8BD
:1021C000001F21F0100140E80012002AF5D1E06B59
:1021D000FEF76BFD6663A08DE18D401A81B206E0CB
:1021E000A18D8142A8D1D069B842A5D166632046AD
:1021F000FFF72AFFF8BDA08DE18D401A81B2E08D76
:102200000028F7D00029F5D020680C3050E8002FC6
:1022100022F4907240E80027002FF5D12068143096
:1022200050E8002F22F0010240E80027002FF5D1EE
:1022300084F84230256320680C3050E8002F00E01D
:1022400006E022F0100240E80023002BF3D1CDE796
:1022500005062BD5150629D594F841002128C9D1AA
:10226000A068B0F5805F01D12069B0B1206A411C3F
:102270002162216800784860E08C401E0004000C58
:10228000E084B7D12068C16821F08001C160206876
:10229000C16841F04001C160F8BD206A0088C0F308
:1022A00008004860206A801C2062E5E74006F3D5FC
:1022B0005006F1D5CA68204622F04002CA6084F870
:1022C000413000F008F9F8BD4B2D000870B504004E
:1022D00004D094F84100002510B106E0012070BD43
:1022E00084F84050204600F023F8242084F8410070
:1022F0002068C16821F40051C160204600F0B4FD9F
:102300002068016921F4904101612068416921F050
:102310002A0141612068C16841F40051C1606564CF
:10232000202084F8410084F842006563002070BDDD
:102330002DE9F04F87B0044614216846FEF70BF8EC
:102340005B4B21685B4802260322072700254FF4D8
:10235000807B4FF000694FF4806A994265D15549FE
:1023600014310B6843F010030B60096801F0100191
:102370000591016841F002010160016801F002016C
:102380000591016841F0010101600068CDE9025248
:1023900000F0010005908020CDE9000690466946D6
:1023A00004974548FEF728FE3002CDE90006CDE946
:1023B0000258694604974148FEF71EFE414E4048C8
:1023C0004F463060C6E90195C6E9035A7561C6E912
:1023D000065B4FF44039C6E90895D0463046FEF713
:1023E0008FFD08B1FEF785F8E663B463354E3448D7
:1023F00060363030E6E802074020A6E82101314887
:1024000046F814596030B561C6E907597562FEF7A0
:1024100077FD08B1FEF76DF8A6630022114625206E
:10242000B463FFF753F825203CE0274B99423BD19A
:10243000204910310B6843F480230B60096801F4D4
:1024400080210591016841F0040101600068CDE937
:10245000025200F0040005904FF44060CDE9000600
:10246000694604971948FEF7C7FD164E1848C0364E
:102470003060C6E90195C6E9035A7561C6E9065B95
:102480004FF44030C6E908053046FEF739FD08B183
:10249000FEF72FF8E663002211462720B463FFF70A
:1024A00015F82720FFF704F807B0BDE8F08F00000B
:1024B0000010014030380240000402400000024099
:1024C0008864024064030020004800400008024085
:1024D0002860024070477047FEE700000F4810B5C3
:1024E0000D4901600321416000214FF410228160F9
:1024F000C0E903124FF40012426101764176817601
:10250000C17601774177FEF766FA002803D0BDE86F
:102510001040FDF7EEBF10BD0064004040000020F9
:102520000F4810B50D4901600321416000214FF4AF
:1025300010228160C0E903124FF40012426101765B
:1025400041768176C17601774177FEF744FA00281B
:1025500003D0BDE81040FDF7CCBF10BD00680040BF
:10256000680000201D4808B5016841F400110160B1
:10257000016801F400110091016841F480010160DB
:102580000068002200F48000009011460C20FEF745
:102590009DFF0C20FEF78CFF002211463A20FEF72B
:1025A00095FF3A20FEF784FF002211463B20FEF7FC
:1025B0008DFF3B20FEF77CFF002211464420FEF7F2
:1025C00085FF4420FEF774FF002211464620FEF7E7
:1025D0007DFFBDE808404620FEF76ABF3038024064
:1025E0002DE9F04387B014216846FDF7B4FE464854
:1025F0000025016841F002010160016801F002015B
:102600000591016841F001010160016801F00101DB
:102610000591016841F008010160016801F00801BD
:102620000591016841F004010160016801F00401B5
:102630000591016841F020010160016801F020016D
:102640000591016841F080010160016801F080019D
:102650000591016841F04001016000682B4E00F0D7
:1026600040000590002201213046FEF7ADFD284FC5
:10267000012240213846FEF7A7FDDFF898800122AD
:1026800010214046FEF7A0FDDFF88C900122114694
:102690004846FEF799FD01240094CDE901456946BD
:1026A00030460395FEF7A8FC4020CDE900040294D3
:1026B000694638460394FEF79FFC08204FF4041641
:1026C000CDE90006694602943846FEF795FC1020D5
:1026D000CDE90004022569464046CDE90245FEF7F2
:1026E0008BFC3020CDE90006694602940B48FEF7CA
:1026F00083FC0094694648460194CDE90245FEF703
:102700007BFC07B0BDE8F083303802400014024083
:10271000001802400000024000040240000802408D
:102720000D4810B50B4901600C49416000214FF480
:1027300080428160C0E9031241618161C16101622F
:10274000FEF74EFD002803D0BDE81040FDF7D1BED6
:1027500010BD0000005C004090000020801A0600C0
:10276000104810B50E4901604FF48271416000219C
:1027700002228160C0E90312012242615202826199
:102780003822C0E90721416281620A21C162FFF754
:1027900067F9002803D0BDE81040FDF7AABE10BDC0
:1027A00000300140E400002010B588B01C216846CC
:1027B000FDF7D1FD144813490024C0E9001441F28B
:1027C0008731C0E9024104618461FFF783FA08B1EF
:1027D000FDF78FFE0C48FFF709FC08B1FDF789FEF5
:1027E0006020CDE900040294002269460648049462
:1027F000FFF796FB08B1FDF77CFE0348FFF736FBB9
:1028000008B010BD004401408C02002010B58EB00D
:1028100000240794089409940A940B941C21684698
:102820000C94FDF798FD1E481C49C0E900144FF6B2
:10283000FF71C0E9024104618461FFF74BFA08B1FE
:10284000FDF757FE4FF48050079007A91448FFF793
:102850009FFA08B1FDF74DFE1148FFF7C7FB08B11D
:10286000FDF747FE0B940BA90D480C94FFF7EAF90E
:1028700008B1FDF73EFE6020CDE900040294082275
:10288000694607480494FFF74BFB08B1FDF731FE9A
:102890000348FFF7EBFA0EB010BD0000000800403F
:1028A000FC01002010B58EB0002407940894099410
:1028B0000A940B941C2168460C94FDF74CFD2748A4
:1028C0002549C0E900144FF6FF71C0E902410461D7
:1028D0008461FFF7FFF908B1FDF70BFE4FF480505C
:1028E000079007A91D48FFF753FA08B1FDF701FE4D
:1028F0001A48FFF77BFB08B1FDF7FBFD0B940BA912
:1029000016480C94FFF79EF908B1FDF7F2FD602020
:10291000009042F21070CDE90104002269460F4890
:102920000494FFF7FDFA08B1FDF7E3FD04226946C0
:102930000A48FFF7F5FA08B1FDF7DBFD0822694602
:1029400006480194FFF7ECFA08B1FDF7D2FD034801
:10295000FFF78CFA0EB010BD000C004044020020BE
:102960000C4810B50A4901600B49416000218160A3
:102970000C22C160C0E904128161C161FFF7A6FCAD
:10298000002803D0BDE81040FDF7B3BD10BD000026
:1029900000100140D402002000093D000D4810B590
:1029A0000B4901600C49416000214FF48062816055
:1029B000C0E903120C22C0E90521C161FFF786FCC2
:1029C000002803D0BDE81040FDF793BD10BD000006
:1029D000004800401C030020A0860100FEE7FEE73F
:1029E00070477047FEF70ABD30B593B03021684696
:1029F000FDF7B1FC14210CA8FDF7ADFC1D48002526
:102A0000016841F080510160006800F08050119031
:102A10001948016841F4804101600068022400F413
:102A2000804011900120039010200490009406949F
:102A30000820CDE90750A820CDE9090404200B9017
:102A40006846FEF761FE08B172B6FEE70CA90F20DA
:102A500081E831004FF4A0500F904FF48050109057
:102A600005210CA8FEF764FD002801D072B6FEE730
:102A700013B030BD40380240007000400248016889
:102A800041F470010160704788ED00E0F0B5026824
:102A9000274D284E284FDFF8A4C0294B4FF0804E19
:102AA000A84209D0704507D0B04205D0B84203D043
:102AB000604501D0984203D122F070044A68224355
:102AC000A8421BD0704519D0B04217D0B84215D0DB
:102AD000604513D0984211D01A4CA0420ED01A4C27
:102AE000A0420BD0194CA04208D0194CA04205D0EE
:102AF000184CA04202D0184CA04203D122F44074DA
:102B0000CA6822434C6922F0800222438C68C46266
:102B10000C688462A84201D0984201D1096901631E
:102B2000016841F004010160012141610260F0BDD2
:102B3000000001400004004000080040000C00407C
:102B400000040140004001400044014000480140B1
:102B500000180040001C00400020004010B58468B0
:102B600042EA032224F47F440A432243826010BDD8
:102B7000826822F070020A4342F0070181607047C8
:102B8000F0B5026A036A23F00103036243688469B3
:102B9000114E24F073050C68104F2C4322F00205EF
:102BA0008A682A43B04201D0B84205D122F0080514
:102BB000CA682A4322F00402B04201D0B84205D1CB
:102BC0004D6923F440731D438B692B43436084613B
:102BD000496841630262F0BD000001400004014009
:102BE000F0B5026A036A23F0100303624368846944
:102BF0000D6824F4E64444EA05248D6822F020029E
:102C000042EA05120F4D104EA84201D0B04206D143
:102C1000CF6822F0800242EA071222F04002A84266
:102C200001D0B04207D14D6923F4406343EA8503E4
:102C30008D6943EA85034360846149688163026268
:102C4000F0BD00000000014000040140F0B5026A40
:102C5000036A23F4807303624368C46922F4007238
:102C600024F073050C68124E2C438D6842EA05224D
:102C70000E4DA84201D0B04206D1CF6822F40062C6
:102C800042EA072222F48062A84201D0B04207D172
:102C90004D6923F4405343EA05138D6943EA051354
:102CA0004360C4614968C1630262F0BD0000014035
:102CB0000004014030B5036A026A22F480520262C5
:102CC0004268C4690D6824F4E64444EA05248D682A
:102CD00023F4005343EA0533084DA84202D0084DBF
:102CE000A84204D14D6922F4804242EA8512426032
:102CF000C46149680164036230BD00000000014006
:102D00000004014010B5046A036A23F00103036262
:102D1000836923F0F00343EA021324F00A020A4312
:102D20008361026210BD10B5036A046A24F01004C6
:102D30000462846923F0A00324F4704444EA02325C
:102D400043EA01118261016210BD10B5806B002160
:102D5000C185FFF77AF910BD01680C3151E8002FE9
:102D600022F4907241E80023002BF5D10168143160
:102D700051E8002F22F0010241E80023002BF5D199
:102D8000016B012909D101680C3151E8002F22F0B3
:102D9000100241E80023002BF5D1202180F84210D9
:102DA00000210163704708B590F84210222901D034
:102DB000022008BD81684FF48053994201D1026915
:102DC00022B1826A99421BD049B10AE00268816A45
:102DD0005268C2F308020A80816A891C08E001690E
:102DE00071B10168496801F07F011170816A491C65
:102DF0008162C18D491E0904090CC18503D01BE005
:102E000001684968F1E70168CA6822F02002CA60D7
:102E10000168CA6822F48072CA6001684A6922F0B7
:102E200001024A61202180F8421000214163026BB7
:102E3000012A03D0FFF74EFB002008BD01630168A3
:102E40000C3151E8002F22F0100241E80023002B42
:102E5000F5D101680A68D20602D50A68496800916E
:102E6000818DFFF7F1F8E7E770B504460068016966
:102E7000E26821F4405111430161A1682069E269CF
:102E800001436069104301432068C26849F20C6342
:102E90009A430A43C26020684169A26921F44071E3
:102EA0001143416131492068884202D0304988424B
:102EB00002D1FEF7E7FB01E0FEF7D4FBE269002355
:102EC000192164253226B2F5004F626828D0A0FB94
:102ED0000101930F9200FDF7C7F90146B0FBF5F031
:102EE0006FF01802504301EB800006EB0010B0FBBE
:102EF000F5F000F0F002B1FBF5F002EB0012B1FBCF
:102F0000F5F06FF01803584301EB800006EB00105A
:102F1000B0FBF5F000F00F0021681044886070BD30
:102F2000A0FB010192185B41FDF79EF90146B0FB41
:102F3000F5F00201B1FBF5F06FF01803584301EB17
:102F4000800006EBC000B0FBF5F000F0F80002EBEB
:102F50004002B1FBF5F0584301EB800006EBC000E6
:102F6000B0FBF5F000F00700D6E7000000100140CC
:102F7000001401400148FFF769B80000D4020020A6
:102F8000FEE70907090E002804DB00F1E02080F8C5
:102F90000014704700F00F0000F1E02080F8141DCD
:102FA0007047000000B58BB000200121CDE906017B
:102FB000089100900190029003900590049069465A
:102FC0000C48FDF709FB0B48FDF73DFE02210948BF
:102FD000FDF791FA0E200990059069460648FDF725
:102FE000FBFA0548FDF72FFE02210348FDF783FA9F
:102FF0000BB000BD4000002068000020FEF706FA7C
:10300000FFF7F2FCFFF7ECFAFFF7ACFAFFF766FA0E
:10301000FFF786FAFFF7C2FCFFF7A2FCFFF780FB81
:10302000FFF79EFBFFF7C0FBFFF7F0FBFFF73AFC53
:1030300000F0FAF8084C0749207800F08DFB207862
:1030400000F052F96060207800F05EF90120FDF791
:10305000C1FFF8E7280000200000002030B5354C03
:1030600000EB40059FED321A9FED330A05EBC000DF
:1030700004EB8000022B02D0052B37D118E05388D7
:10308000F2EE061A5BBA00EE903AF8EE600A60EED5
:10309000A11ADFED2A0A51EE810AC0ED080A9388D1
:1030A0005BBA00EE903AB8EE601AF3EE010A17E050
:1030B0005388F2EE091A5BBA00EE903AF8EE600A15
:1030C00060EEA11ADFED1E0A51EE810AC0ED080A7A
:1030D00093885BBA00EE903AB8EE601AF1EE060AF9
:1030E00021EE201A51EE000AC0ED060A13885BBAE1
:1030F00000EE903AB8EE601ADFED120A21EE201AC7
:1031000051EE000AC0ED070AD288F2EE040A52BA64
:1031100000EE102AC1F30542C1F38151B8EE400A16
:1031200080EE201A80ED091A0275417530BD00004D
:103130000000003984040020000000380000304204
:1031400000004842B81E494100EB400101EBC001BC
:103150000D4808B500EB8102007811795388C90643
:10316000C90841EA0321014307486B462C304160FE
:10317000042181600021C160917901610146034809
:10318000D21DFDF7CAF908BD8404002040000020CC
:103190000346114830B4C05C104C00EB400202EB17
:1031A000C00224F8223004EB8204227922F01F02AC
:1031B00018322271002262800822A2710022531C60
:1031C0002244D371DAB2062AF9D3012900D00021B2
:1031D000617330BCFFF7B8BF1D00002084040020DD
:1031E00002460F4830B4805C0E4B00EB400101EB0F
:1031F000C00123F8212003EB81020023117921F083
:103200001F01C91C1171538008219171194654186E
:10321000491CC9B2E3710829F9D330BCFFF794BF48
:103220001D000020840400202DE9F041FFF7BAFEC4
:103230000020234F234C84467D1E00EB40012E5C72
:1032400001EBC00304EB830106F01F0281F8282084
:10325000B85424F823200A7922F0E0020A71720996
:1032600081F829C0401C81F82A2010F0FF00E4D02A
:10327000002604E0FFF7B4FF0120FDF7ABFE06EBEC
:10328000460000EBC60004EB8007A85D97ED090A35
:1032900000F01F00B5EEC00AF1EE10FAEAD00121ED
:1032A000FFF776FF012087F82900386997ED070AB4
:1032B000761C80ED020A16F0FF06E0D0BDE8F08132
:1032C0001D00002084040020B4EEE00AF1EE10FAA4
:1032D00002DDB0EE600A7047B4EEC10AF1EE10FAFA
:1032E000F9D2B0EE410A70470549085C00EB400195
:1032F00001EBC000034901EB80001430704700006F
:103300001D00002084040020FEB51D4E04461D4D06
:10331000305D00EB400101EBC00005EB800125F8BA
:103320002040087920F01F00401C08710820887197
:1033300091F82A206946204600F026F8305DBDF855
:10334000042000EB400101EBC00105EB81014A8044
:10335000BDF80020130ACB710A72BDF80220130ACF
:103360004B728A72BDF80620130ACB720A73BDF83D
:103370000820130A4B738A73FFF7E6FEFEBD0000B8
:103380001D000020840400202DE9F041E34FE44EAD
:103390000D462DED088B04469FEDE21ADFEDE2AA03
:1033A0009FEDE2AA00EB4400DFEDE18A9FEDE18AA8
:1033B000DFEDE19A00EBC400B1EE049A06EB800861
:1033C000022A7DD0052A7CD1385DF0EE6A0A00EB36
:1033D000400101EBC00006EB8000006990ED020A9D
:1033E000FFF772FF385D00EB400101EBC00006EB18
:1033F0008000006980ED020A385D00EB400101EBBE
:10340000C00006EB8000006990ED030A9FEDCB1A27
:103410009FEDCBBAF0EE4B0AFFF756FF385DB9EEE1
:10342000061A00EB400101EBC00006EB8000F1EE54
:10343000060A006980ED030A385D00EB400101EBEC
:10344000C00006EB8000006990ED010AFFF73CFF29
:10345000385DB0EE4A1A00EB400101EBC00006EB0C
:103460008000F1EE040A006980ED010A385D00EB8E
:10347000400101EBC00006EB8000006990ED050AF9
:10348000FFF722FF385DB0EE4A1A00EB400101EB76
:10349000C00006EB8000F0EE680A006980ED050AC6
:1034A000385D00EB400101EBC00006EB80000069D5
:1034B00090ED040AFFF708FF385D00EB400101E0E2
:1034C00070E06BE001EBC00006EB8000006980ED6E
:1034D000040A385D00EB400101EBC00006EB800000
:1034E000006990ED020A30EE2A0A20EE080AC0EECA
:1034F000290ABCEEE00A10EE100A2880385D00EBC5
:10350000400101EBC00006EB8000006990ED030A6A
:1035100030EE0B0A20EE080ADFED8A0A80EE201A50
:10352000F1EE060ABCEEC10A10EE100A6880D8F867
:10353000100090ED010A30EE200AF2EE060A20EEAD
:10354000080A80EE201ABCEEC10A10EE100AA8800C
:10355000385D00EB400101EBC00006EB8000006924
:1035600090ED040A20EE080AC0EE280ABCEEE00A3C
:1035700010EE100AE880385D00EB400101EBC0005E
:1035800006EB8000006990ED050A20EE080AC0EE07
:10359000090ABCEEE00A10EE100A2881BDEC088B87
:1035A000BDE8F081385DF0EE6A0A00EB400101EB06
:1035B000C00006EB8000006990ED020AFFF784FE70
:1035C000385D00EB400101EBC00006EB80000069B4
:1035D00080ED020A385D00EB400101EBC00006EB14
:1035E0008000006990ED030A9FED571A9FED57BACE
:1035F000F0EE4B0AFFF768FE385DBBEE011A00EBF8
:10360000400101EBC00006EB8000F3EE010A006907
:1036100080ED030A385D00EB400101EBC00006EBD2
:103620008000006990ED010AFFF74EFE385DB0EEB4
:103630004A1A00EB400101EBC00006EB8000F1EEFE
:10364000040A006980ED010A385D00EB400101EBDE
:10365000C00006EB8000006990ED050AFFF734FE1C
:10366000385DB0EE4A1A00EB400101EBC00006EBFA
:103670008000F0EE680A006980ED050A385D00EB15
:10368000400101EBC00006EB8000006990ED040AE8
:10369000FFF71AFE385D00EB400101EBC00006EBBE
:1036A0008000006980ED040A385D00EB400101EB09
:1036B000C00006EB8000006990ED020A30EE2A0A95
:1036C00020EE080AC0EE290ABCEEE00ADFED200A6F
:1036D00010EE100A2880385D00EB400101EBC000BD
:1036E00006EB8000006990ED030A30EE0B0A20EE35
:1036F000080A80EE201AF3EE010ABCEEC10A10EEB1
:10370000100A6880D8F8100090ED010A30EE200A07
:10371000DFED100A20EE080A13E700001D0000206C
:1037200084040020B81E49C1B81E494100000000B1
:103730000000FA4300FF7F47B81EC941000048C29D
:10374000000048420000C842000030C20000304281
:103750000000B042000008420B4B10B51A5C02EBAF
:10376000420404EBC204094A02EB840494ED070A04
:1037700081ED020A185C00EB400303EBC00002EB92
:103780008000016110BD00001D00002084040020A5
:103790004FF04070E1EE100A704700061016000668
:1037A00010160000000000000000010203040607DC
:1037B000080900000000010203040000DC370008D3
:1037C0000000002028000000C401000804380008A0
:1037D00028000020000B0000E001000802000000AB
:1037E00000000000000000000100000010000000C8
:1037F000000000000024F40042000000000000006F
:0438000000000000C4
:040000050800018965
:00000001FF
